:020000040800F2
:10000000B0520020490700082D0500085D080008CF
:100010002F05000833050008370500080000000020
:10002000000000000000000000000000490300087C
:100030003B050008151300080D04000881040008A2
:1000400063070008630700086307000863070008E8
:1000500063070008630700086307000863070008D8
:1000600063070008630700086307000863070008C8
:1000700063070008630700086307000863070008B8
:1000800063070008630700086307000863070008A8
:100090006307000863070008630700086307000898
:1000A0006307000863070008630700086307000888
:1000B000AB0E0008B30C00086307000863070008D4
:1000C0006307000863070008630700086307000868
:1000D000630700082B0E0008630700086307000889
:1000E0006307000863070008630700086307000848
:1000F0006307000863070008630700086307000838
:100100006307000863070008630700086307000827
:100110006307000863070008630700086307000817
:10012000511100086307000863070008630700080F
:1001300063070008630700086307000863070008F7
:1001400063070008630700086307000863070008E7
:1001500063070008630700086307000863070008D7
:1001600063070008630700086307000863070008C7
:1001700063070008630700086307000863070008B7
:10018000630700086307000800F002F800F05CF85D
:100190000AA090E8000C82448344AAF10107DA45E2
:1001A00001D100F051F8AFF2090EBAE80F0013F0D8
:1001B000010F18BFFB1A43F001031847C851000094
:1001C000E85100000A444FF0000C10F8013B13F016
:1001D000070408BF10F8014B1D1108BF10F8015BA0
:1001E000641E05D010F8016B641E01F8016BF9D193
:1001F00013F0080F1EBF10F8014BAD1C0C1B09D1EA
:100200006D1E58BF01F801CBFAD505E014F8016B5B
:1002100001F8016B6D1EF9D59142D6D370470000ED
:100220000023002400250026103A28BF78C1FBD8FF
:10023000520728BF30C148BF0B6070471FB505F09B
:100240007DF81FBD10B510BD04F04FF91146FFF742
:10025000F5FF00F0E4FA04F06DF903B4FFF7F2FFE4
:1002600003BC04F071F9000041804FEA2141018094
:10027000704741804FEA214101807047C2804FEAB8
:100280002242828043804FEA234303807047C2802A
:100290004FEA2242828043804FEA23430380704723
:1002A0000188408840EA014070470188408840EA60
:1002B000014070470246D088938840EA0340518845
:1002C000138841EA03417047C1704FEA21218170D0
:1002D0004FEA212141704FEA21210170704700004F
:1002E00080F309887047EFF309807047684680F310
:1002F000098804480078C00714BF0220032080F357
:100300001488704758530008DFF818C0EFF30583CE
:100310001B0618BF6047EFF31483DB0708BF604775
:1003200000DF704753460008DFF818C0EFF305837D
:100330001B0618BF6047EFF31483DB0708BF604755
:1003400000DF7047B1470008EFF30980816911F8B9
:10035000021C01B142E010B590E80F10E047BDE883
:100360001040EFF3098C254B93E80600914232D000
:1003700041B91EF0100F16D12149086820F0010084
:10038000086010E00CB41EF0100F06BF2CED108AB0
:100390000323012381F826302CE9F00FC1F82CC08B
:1003A00004F058FD0CBC1A60D2F82CC0BCE8F00F69
:1003B00092F8263013F0020F1ABFBCEC108A6FF0CF
:1003C000120E6FF0020E8CF3098813F0010F08BFB4
:1003D000704792F82500CCF80000704710B5094A24
:1003E0001268914209D8084C54F8214090E80F1047
:1003F000A047EFF3098C8CE80F0010BD60020020CD
:1004000034EF00E0584500085845000810B504F0E6
:10041000D5FBBDE81040194B93E80600914208BF98
:1004200070470CB4EFF3098C1EF0100F06BF2CEDD3
:10043000108A0223002381F826302CE9F00FC1F83E
:100440002CC004F007FD0CBC1A60D2F82CC0BCE82C
:10045000F00F92F8263013F0020F1ABFBCEC108A8E
:100460006FF0120E6FF0020E8CF3098813F0010F7B
:100470001CBF92F82530CCF8003070476002002095
:1004800010B504F0B7FDC4E710B504F0E1F804F0CE
:10049000B1FDBEE700BFFEE7704700F02DFC00BFD6
:1004A000FEE77047704710B504F040FF30B11949BE
:1004B00000EB400001EB4010603810BD164810BD45
:1004C000164A10B551680346082900D3FEE71448C0
:1004D00000EB0110491C1860516004F0C1FA0120C2
:1004E00010BD10B5044604F021FF002805D04FF6DA
:1004F000FF71DFF830C0206800DF10BD10B5044682
:1005000004F014FF002803D0DFF81CC0206800DFCF
:1005100010BD0000CC060020504C00200000002040
:10052000EC0A0020554B0008714A0008704700BFD4
:10053000FEE700BFFEE700BFFEE770470CB50020F6
:10054000019000907548006840F48030734908605D
:1005500000BF7248006800F4003000900198401C11
:100560000190009818B90198B0F5A04FF1D16B48EF
:10057000006800F4003010B10120009001E000207C
:1005800000900098012846D164484030006840F04F
:1005900080506249403108606148006840F4404042
:1005A0005F4908605D48083000685C4908310860B0
:1005B0000846006840F4004008600846006840F4BF
:1005C000A05008605748091F0860081F006840F0E5
:1005D0008070091F086000BF5048006800F000707C
:1005E0000028F9D040F205704F4908604B480830A8
:1005F000006820F003004949083108600846006897
:1006000040F00200086000BF44480830006800F075
:100610000C000828F8D10CBD10B54448006840F41F
:100620007000424908603D48006840F001003B49C5
:1006300008600020394908310860384800683C49A2
:100640000840364908603B48091D0860081F0068DB
:1006500020F48020091F0860002030490C31086018
:10066000FFF76CFF344831498039086010BD70B520
:1006700000200022022300240221284D08352D6885
:1006800005F00C0020B1042806D0082834D107E07A
:100690002A4D2B4E356033E0284D294E35602FE032
:1006A0001E4D2D1D2D68C5F380541C4D2D1D2D682C
:1006B00005F03F0154B1214DB5FBF1F5174E361D44
:1006C0003668C6F3881605FB06F209E01B4DB5FB3C
:1006D000F1F5124E361D3668C6F3881605FB06F294
:1006E0000E4D2D1D2D68C5F301456D1C6B00B2FB31
:1006F000F3F5134E356003E0104D114E356000BF29
:1007000000BF064D08352D68C5F303150D4E705D0D
:100710000B4D2D68C5400A4E356070BD0038024053
:100720000070004010544007003C024088ED00E09B
:10073000FFFFF6FE10300024000000080024F40043
:10074000080000200C0000200948804709480047A5
:10075000FEE7FEE7FEE7FEE7FEE7FEE7FEE7FEE771
:10076000FEE7FEE704480549054A064B70470000CE
:100770001906000889010008B04C0020B052002082
:10078000B04E0020B04E00204FF48070894948835D
:1007900070474FF480708749088370474FF40040DA
:1007A0008549088070474FF400408349891C0880C0
:1007B00070478148001F006800F4004028B14FF4E2
:1007C00000407D49891C088003E04FF400407A49CD
:1007D000088070477948006800F0010020B10120CE
:1007E0007649891D088003E001207449091D0880AD
:1007F000704701F035F800F0D0FA00F02CFF00F05F
:10080000AFF900F04DFA00F0EBFB03210020DFF818
:10081000B0C100DF02E0DFF8ACC100DFFBE710B5DC
:1008200000BF0121684802F0AFF9012140F21170C8
:1008300002F002FA012140F6130002F0ECF900BFC9
:1008400000F010F800F077F8FFF750FD5F4A6049BC
:100850006048DFF884C100DF002010BD10B500F053
:100860004BFA10BD1CB5032000908DF80400002049
:100870008DF8070069464F4801F0E8FE07220A217B
:100880004C4801F06EFF072209214A4801F069FF38
:100890004FF4C060009002208DF805008DF8040030
:1008A00000208DF8060001208DF8070069464148B8
:1008B00001F0CCFE4FF48070009003208DF805000D
:1008C00001208DF8040000208DF8060069463948A3
:1008D00001F0BCFE032000908DF8050001208DF88A
:1008E000040000208DF8060069463348183801F0EE
:1008F000ADFE4FF40040009003208DF8050001206C
:100900008DF8040000208DF8060069462A48183842
:1009100001F09CFE0120009003208DF805000120CD
:100920008DF8040000208DF806006946234814382D
:1009300001F08CFE1CBD08B54FF4806001F014F886
:1009400025208DF8000000208DF801008DF80200B0
:1009500001208DF80300684601F00BF81C208DF88B
:10096000000000208DF8010001208DF802008DF8B4
:100970000300684600F0FDFF38208DF800000120DC
:100980008DF8010000208DF8020001208DF8030091
:10099000684600F0EEFF1D208DF8000001208DF864
:1009A00001008DF802008DF80300684600F0E1FFB9
:1009B00008BD000000000240180402401408024074
:1009C000A152000871520008FF074000700B002080
:1009D00003580200F3070008A14E000810B50446B2
:1009E0006B480460204600F022FD694948600A46D1
:1009F000928891B2664A106800F06FFA10BD30B567
:100A0000C1B014216348DFF890C100DF9CE01420DE
:100A100062490860409800786149498888427DD1E0
:100A2000409800F037FD002878D04098C078409971
:100A3000897800EB012084B2409840794099097987
:100A400000EB0120204485B240984078032802D072
:100A5000102871D130E0402D02DDB4F5006F2ADBA3
:100A6000B4F5406F08DB40F67D40854204DC4D481C
:100A700000F028FF00B167E0B4F5406F11DB40F6ED
:100A80007D4085420DDC474800F01CFF48B901A9B4
:100A9000444800F047FFFA2201A9434803F062FCF2
:100AA00000BF409800F02EFD0120DFF800C100DFFC
:100AB0004098FFF793FF3FE0409800F06FFD294614
:100AC000204600F0D5FD48B132203449086038494D
:100AD0004A88898802EB014000F0F5FB2946204650
:100AE00000F0D5FD30B103A800F013FE03A800F01C
:100AF000D2FB00BF2946204600F0DFFD00B101DF38
:100B00002946204600F0E9FD08B100F0F5F8294635
:100B1000204600F0F2FD58B1214800E00EE02549E2
:100B20000A6802604968416000F05CFE00F0E4F889
:100B30004098FFF753FF00BF00BF00BF0020409068
:100B4000401E1649086000BF4FF6FF7240A91148C9
:100B5000DFF864C000DF04283FF459AF41B030BD76
:100B60000023164A1649AFF26910DFF858C000DFBB
:100B700015490860704710B504462146054803F042
:100B800043FD10BD10480068DFF840C000DF70472B
:100B90002400002010110020B94800081C0000208B
:100BA000041B00200E1B00200A1900205D470008CE
:100BB0001618002046000020A5490008C80D002096
:100BC000034803007550000820000020055100086C
:100BD0004FF480703F49488370474FF480703D491F
:100BE000088370474FF400403B49088070474FF43A
:100BF00000403949891C088070473748001F006849
:100C000000F4004028B14FF400403349891C0880AB
:100C100003E04FF400403049088070472F480068D7
:100C200000F0010020B101202C49891D088003E05B
:100C300001202A49091D088070470EB501210220B4
:100C400001F0E9FF41F28730019042F2CF00ADF8A8
:100C500000000020ADF80200ADF808006946204809
:100C600002F091F901211E4802F056FE01221146C0
:100C70001B4802F029FE0121194802F00DFA0EBDB1
:100C8000FFF7DBFF174800F015FE174800F097F953
:100C900005E000F09EF91449124800F01EFEF8E746
:100CA0000023124A1249AFF22700DFF848C000DFE4
:100CB000704710B501210A4802F01DFE012803D13A
:100CC000FFF7ACFFFFF799FF0121054802F024FE72
:100CD00010BD000000000240180402401408024049
:100CE000000400400E1B00201015002028110020D9
:100CF00003E803007550000810B50121C80201F097
:100D00008AFF4FF4C07003F018F9502003F01EF969
:100D10007F2003F036F97F2003F02DF910BD00EBA2
:100D2000C00000BF011EA0F10100FBD17047000010
:100D30004FF480707C49488370474FF480707A4943
:100D4000088370474FF400407849088070474FF49B
:100D500000407649891C088070477448001F00686D
:100D600000F4004028B14FF400407049891C08800D
:100D700003E04FF400406D49088070476C480068FC
:100D800000F0010020B101206949891D088003E0BD
:100D900001206749091D088070471FB56548FFF7A6
:100DA0007FFA044600940020ADF80400ADF8080076
:100DB000ADF80600ADF80C000C20ADF80A0069464D
:100DC0005D4802F0ECFE00214FF0804002F064F933
:100DD0002220ADF804000020ADF806005748006856
:100DE0004008B0FBF4F0401E02900020ADF80C006B
:100DF0008DF80E0001A94FF0804002F0C4F80121E7
:100E0000880702F089FD01221146900702F05CFD7F
:100E10000121494802F04BFF012240F2255146488A
:100E200002F0FBFFFFF784FF1FBD10B500214FF05C
:100E3000804002F0F1F80121880702F02DF93E48C8
:100E4000008800F02000A0B13D480068FF280BD2C8
:100E500039488088C1B23A4802680068401C384B63
:100E60001860384881541EE03348808832498880B1
:100E700019E03548006878B13448006800782E4998
:100E8000888032480068401C304908602E4800685D
:100E9000401E2D49086006E0274880894FF67F7183
:100EA00008402549888110BD704710B54FF080403B
:100EB00000884FF6FE7108404FF0804108804FF6E1
:100EC000FE7008821E480068052802D31D48FFF7FF
:100ED00052FE00201A49086010BD70B504460D4648
:100EE000FFF72BFF194804601748056012488089F6
:100EF00040F080001049888102E0DFF854C000DF34
:100F0000114800680028F8D10B48008800F0400024
:100F10000028F2D0084800884FF6BF710840064903
:100F20000880FFF705FF70BD000002401804024072
:100F300014080240081B0020001001400800002097
:100F40002C0000200A160020340000203000002071
:100F5000715200084FF480708949488370474FF4FC
:100F600080708749088370474FF4004085490880A6
:100F700070474FF400408349891C088070478148BE
:100F8000001F006800F4004028B14FF400407D4984
:100F9000891C088003E04FF400407A4908807047BC
:100FA0007948006800F0010020B101207649891DD0
:100FB000088003E001207449091D0880704710B5BE
:100FC000044600217148DFF8C8C100DF71480460A1
:100FD00010BD4FF6FF716D48DFF8BCC100DF7047F0
:100FE00000B58FB06D4802F0E5FF002000906C481E
:100FF00001906C4802900020039023200490002070
:1010000005904FF480600690400007900890C01053
:10101000099040020A9000200B9003200C900020C1
:101020000D900E9000225F4946315C4803F0C5F8F0
:1010300001215A4803F0CDF86946584803F05CF89E
:101040000121564803F092F801221021534803F081
:101050001AF9002005904FF4803006900020079088
:1010600005A800F02BFD002009908DF82800012034
:101070008DF8290000200B900D9001208DF838008C
:1010800009A947484C3800F0EAFC00230122194620
:1010900043484C3800F069FD012141484C3800F0CC
:1010A0000FFE01213E484C3800F0FFFD01213C4875
:1010B0004C3800F01AFD3C49384803F0D0F8384865
:1010C0004C38806820F0804035494C3988600846AB
:1010D000806840F0804088600FB000BD2DE9F0418D
:1010E000054600264FF6FF7700240DE035F8140082
:1010F000B04201DD35F8146035F81400B84201DA69
:1011000035F81470601C84B2232CEFDBF01B2749E8
:10111000098888421ADD1F480068B8B1F01B81B207
:10112000234802880088401C214B18801948006819
:1011300020F81210184600887D2807D10020154994
:10114000086019460880114803F065FABDE8F0818F
:1011500010B51849114803F0DDF8104803F049F8BC
:10116000012803D10F48FFF7B9FF07E00B4803F050
:1011700040F818B90B484630FFF7B0FF10BD00002B
:101180000000024018040240140802403800002009
:10119000D54D000840000020154E000810640240A4
:1011A0004C2001400A17002020000010041B0020E2
:1011B00044000020208000104FF480707249488362
:1011C00070474FF480707049088370474FF40040B7
:1011D0006E49088070474FF400406C49891C0880B4
:1011E00070476A48001F006800F4004028B14FF4BF
:1011F00000406649891C088003E04FF400406349C1
:10120000088070476248006800F0010020B10120AA
:101210005F49891D088003E001205D49091D0880A0
:10122000704701465B48814201D2002070475A480E
:10123000814201D20820F9E75848814201D21020AA
:10124000F4E75748814201D21820EFE75548814220
:1012500001D22020EAE75448814201D22820E5E764
:101260005248814201D23020E0E75148814201D208
:101270003820DBE74F48814201D24020D6E74E4874
:10128000814201D24820D1E74C48814201D250200E
:10129000CCE75820CAE770B5054600F045FE0024AB
:1012A0000BE0414B2A681A4402EB840005F1080266
:1012B00052F8241000F0A5FF641C6868A042F0D822
:1012C00000F03FFE70BD70B5054600F02DFEF32026
:1012D00001F02BF9344C08E02046FFF7A2FF064648
:1012E000022100F075FE04F500342F482844A04286
:1012F000F2D800F026FE70BD10B52B48406B304987
:10130000401A2949441872B671B627482D49086019
:10131000A04710BD2A482C49451800F005FE284C6E
:101320000CE0FFF76FFFFFF75CFF2046FFF779FF48
:101330000646022100F04CFE04F58044AC42F0D396
:101340001F4C09E0FFF75EFF1D48174A101A0159AC
:10135000204600F056FF241DAC42F3D300F0F1FD0F
:1013600000240AE0002500E06D1C18488542FBD3EC
:10137000FFF748FFFFF735FF641C642CF2D3FFF73B
:10138000BBFC00BFFEE70000000002401804024062
:1013900014080240004000080080000800C0000857
:1013A0000000010800000208000004080000060810
:1013B0000000080800000A0800000C0800000E08E1
:1013C0000000000808ED00E0EC540000A0860100D9
:1013D0000146B1F5806F0ADB40F27A40814206DABD
:1013E000E048006800EB4100A0F500607047B1F5EF
:1013F000006F0ADB40F60600814206DADA48006830
:1014000000EB4100A0F58050F0E70020EEE7014638
:1014100000204A78032A02D0102A06D101E00820D1
:1014200003E08A7902F1090000BF00BF704701465E
:1014300000204A78032A02D0102A05D102E08A78D7
:10144000501D01E0082000BF00BF704770B5044682
:101450002046FFF7ECFF0546A81E81B2204600F0AB
:101460008DF906463112A81E2154681E265470BDFF
:1014700070B504462046FFF7CAFF0546A81E81B294
:10148000204600F07BF906463112A81E2154681E42
:10149000265470BD70B505462846FFF7B8FF0446D0
:1014A000022C11DDA01E81B2284600F067F9064625
:1014B000601E295CA01E285C01EB0020B04201D117
:1014C000012070BD0020FCE70020FAE770B505465A
:1014D0002846FFF7ACFF0446022C11DDA01E81B2A6
:1014E000284600F04BF90646601E295CA01E285CC9
:1014F00001EB0020B04201D1012070BD0020FCE7CB
:101500000020FAE72DE9F04105460026E878A978A1
:1015100000EB012084B26879297900EB0120204496
:1015200087B20020A87032E0BD2C04DA8F49096828
:1015300031F814001DE0B4F5006F0ADB40F6060137
:101540008C4206DAA4F50061874A126832F811006D
:101550000FE0B4F5406F0ADB40F6FA418C4206D248
:10156000A4F54061824A126832F8110001E04FF69A
:10157000FF7003123146761CEA1C53543146761C28
:101580005054A978891CA970611C8CB200BFBC4260
:10159000CADB2846FFF75AFFBDE8F0812DE9F0418C
:1015A00004460026E078A17800EB012085B260793E
:1015B000217900EB012028441FFA80F80FE028462B
:1015C000FFF706FF074637B1E01D711C415C805DE7
:1015D00001EB00203880681C85B2B61C00BF454571
:1015E000EDDB2046FFF732FFBDE8F081002004E08C
:1015F0000021604A22F81010401C2028F8DB45F238
:1016000044015C4A118044F64471518042F63051E5
:1016100091804FF45051D1800021118151819181ED
:10162000002005E000225349403121F81020401CE1
:101630002028F7DB43F22E114E4AA2F840100A464A
:101640004C49A1F8422043F23712A1F8442000226D
:10165000A1F84620704710B5FFF7C8FF10BD02463D
:10166000402A03D1BD2901D1012070470020FCE7A9
:101670000246B2F5806F08D140F20340814204D1A6
:101680003D480088012800D170470020FCE7024651
:10169000B2F5806F0FD140F2044081420BDB364837
:1016A0000088022807D13448C388A1F2044083424D
:1016B00001D1012070470020FCE70246B2F5806F9F
:1016C00009D140F20340814205D12B48008803280C
:1016D00001D1012070470020FCE70246B2F5806F7F
:1016E00009D140F20140814205D1234800880428F5
:1016F00001D1012070470020FCE7024640F60300BC
:10170000824204DAB1F5006F01DD0120704700204C
:10171000FCE710B50146184A5388928803EB024251
:101720000A60154BDA8802EBD2735B104B60002025
:1017300013E04300104A083232F81330012202EB62
:1017400040040D4A083232F8142003EB024301F141
:10175000080242F82030421C90B24A688242E8D81F
:1017600010BD00007453000878530008705300083F
:101770007C530008961700201618002070B502460A
:101780000C46FF25FF2309E012F8010B80EA050152
:101790001248405C80EA03051148435C201EA4F116
:1017A0000106B4B2F0D143EA052070BDF0B503469E
:1017B00014461D12DEB209E011F8010B80EA0502A1
:1017C0000648805C80EA06050548865C201EA4F178
:1017D0000107BCB2F0D146EA0520F0BD4E00002062
:1017E0004E0100202DE9F04100242F4D052608214F
:1017F0002846FFF7C3FF2946088100F095FBF32038
:1018000000F093FE2948FFF70CFD0746022100F087
:10181000DFFB09E02988254AA01800F01BFDAD1C5C
:10182000A01C84B2701E86B2002EF3DC00F089FB8F
:10183000BDE8F08110B54FF47A701B4908804FF471
:1018400016511948001DFEF70FFD0120164948806A
:1018500017480A68026049684160FFF7C3FF10BD7E
:101860002DE9F041104D0526002707E00F48385AB2
:101870002880AD1CB81C87B2701E86B2002EF5DC25
:1018800008210948FFF77AFF044607480089A0426B
:1018900006D1074804490A6802604968416001E0CE
:1018A000FFF7C8FFBDE8F081041B002000000C0812
:1018B0004600002010B5044643F2D701204602F04E
:1018C00096FD10BD0146887828B908784A7890427C
:1018D00001D1012070470020FCE770B504460D4699
:1018E000A078322805D120786178884201D1002083
:1018F00070BD617801EB4102C2EBC112E11C01EB4A
:101900004200FA22294602F02DFDA078401CA0706A
:101910006078401C322190FBF1F201FB12006070F4
:101920000120E5E770B504460D462046FFF7CAFFE3
:1019300008B1002070BD207800EB4002C2EBC0125D
:10194000E01C00EB4201FA22284602F00BFDA078D1
:10195000401EA0702078401C322190FBF1F201FB68
:10196000120020700120E5E732490143324A11603C
:10197000704770B5002100230F22C4781CB32E4C91
:10198000246804F4E064C4F5E064C4F30721C1F101
:101990000404E3B20A4144789C40E1B284781440E4
:1019A00021430C07210E254C05786155047804F07D
:1019B0001F050124AC4005786D11AD0005F1E0254F
:1019C000C5F8004109E0047804F01F050124AC408B
:1019D0001B4D0678761145F8264070BD194A0A401D
:1019E0000243154B1B1F1A60704739B1124A121D72
:1019F00012680243104B1B1D1A6006E00E4A121DAE
:101A0000126882430C4B1B1D1A607047042808D1D2
:101A10004FF0E021096941F004014FF0E02211612B
:101A200007E04FF0E021096921F004014FF0E022C6
:101A3000116170470000FA050CED00E000E400E0E1
:101A400080E100E080FFFF1F10B50121080201F0D6
:101A500048F900214FF4807001F043F910BD30B512
:101A60000246002000235068F84C20400D790C6895
:101A700044EA0524204350609068F54C2040D1E9A9
:101A800003542C438D682C434D7944EA450420438C
:101A90009060D06A20F470000C7D641EE4B2234391
:101AA00040EA0350D06230BD0021016001714171F4
:101AB0008160C16001610121017570470021E54A23
:101AC0001168E54A1140D0E900231A4383681A439C
:101AD000C3681A431143E14AC2F804137047002156
:101AE000016041608160C160704721B1826842F04D
:101AF0000102826003E0826822F001028260704786
:101B00000A4600214168D64B194011434160704795
:101B10004162826270470A460021416821F01F013C
:101B200011434160704738B1CA49096841F4000166
:101B3000CA4AC2F8041306E0C649096821F4000144
:101B4000C64AC2F80413704738B1C249096841F463
:101B50008001C24AC2F8041306E0BE49096821F4B4
:101B60008001BE4AC2F804137047F0B504460D4622
:101B700000200021092D11DDE068A5F10A0606EB21
:101B80004607072606FA07F18843A5F10A0606EB81
:101B9000460603FA06F10843E0600CE0206905EB15
:101BA0004507072606FA07F1884305EB450603FAC1
:101BB00006F108432061072A0FDA606B561E06EB18
:101BC00086071F2606FA07F18843561E06EB86068F
:101BD00005FA06F10843606322E00D2A0FDA206B54
:101BE000D61F06EB86071F2606FA07F18843D61F85
:101BF00006EB860605FA06F10843206310E0E06A6A
:101C0000A2F10D0606EB86071F2606FA07F18843A8
:101C1000A2F10D0606EB860605FA06F10843E0621E
:101C2000F0BD816841F0804181607047014600202D
:101C30008A6802F080420AB1012000E0002070476B
:101C400021B1826842F48062826003E0826822F4FB
:101C500080628260704721B1826842F00202826035
:101C600003E0826822F002028260704710B50A46E3
:101C700000210023416821F46041531E41EA4331B1
:101C8000416010BD21B1426842F40062426003E04D
:101C9000426822F40062426070470146C86C80B21C
:101CA00070476C48001D0068704721B1826842F49B
:101CB0008072826003E0826822F4807282607047E2
:101CC00021B1826842F40072826003E0826822F4EB
:101CD00000728260704738B15E49096841F4005172
:101CE0005E4AC2F8041306E05A49096821F400511B
:101CF0005A4AC2F804137047F0B50446154600204E
:101D000000220026092911DDE068A1F10A0707EB8E
:101D1000470C072707FA0CF29043A1F10A0707EBDB
:101D2000470703FA07F21043E0600CE0206901EB7B
:101D3000410C072707FA0CF2904301EB410703FA25
:101D400007F210432061A06BC0F30156EF1C06F1AF
:101D5000010CA7EB0C0707EB870C1F2707FA0CF207
:101D60009043EF1C06F1010CA7EB0C0707EB87076C
:101D700001FA07F21043A063F0BD10B50A46002136
:101D80000023816B21F44011531E41EA035181630A
:101D900010BD08B5002300930090009B0B440093F6
:101DA000009B1A6008BD0A460021816821F4702159
:101DB0001143816070470A460021816821F4401177
:101DC000114381607047816841F4800181607047F0
:101DD000014600208A6802F480020AB1012000E076
:101DE0000020704721B1426842F48062426003E003
:101DF000426822F480624260704721B1426842F436
:101E00008052426003E0426822F480524260704790
:101E100008B5024600200090009201F12800009BC6
:101E2000184400900098006880B208BD10B50B46B9
:101E30000021D9B2012404FA01F11AB144680C431B
:101E4000446002E044688C43446010BDFFFEFFFC28
:101E5000FDF7FFC004230140E030FCFF00200140FB
:101E6000FFFD3FFF0246002013680B400BB101202D
:101E700000E000207047CA430260704770B5024618
:101E80000020002300240B12556801268E4005EA2D
:101E9000060415681D4015B10CB1012000E00020BA
:101EA00070BD00220A12D34303607047FE4A1070CF
:101EB000704730B1FC49096841F48071FA4A1160F9
:101EC00005E0F949096821F48071F74A116070470B
:101ED00030B1F549096841F40071F34A116005E039
:101EE000F149096821F40071EF4A1160704730B17F
:101EF000ED49096841F48061EB4A116005E0EA4967
:101F0000096821F48061E84A11607047E64800687A
:101F100040F40060E44908607047E348006840F41A
:101F20008050E14908607047DF481030006800F0D9
:101F3000004028B1DD48DC49091D0860DC48086024
:101F40007047D9481030006840F00040D649103141
:101F5000086070470920D4490C31096801F48031C8
:101F6000B1F5803F01D1012020E0CF490C31096853
:101F700001F0100109B1062018E0CB490C310968C5
:101F800001F4807109B1022010E0C7490C310968E1
:101F900001F0EF0109B1072008E0C3490C310968DD
:101FA00001F0020109B1082000E00920704708B5DE
:101FB00009200090FFF7CEFF009002E0FFF7CAFF74
:101FC00000909DF800000128F8D09DF8000008BDA1
:101FD00070B504460A460026092502B909E0012A1F
:101FE00001D1160205E0022A01D1160201E04FF4E8
:101FF0004076FFF7DCFF0546092D2DD1AA481030A9
:10200000006820F44070A849103108600846006854
:10201000304308600846006820F0F8000860084671
:10202000006844F0020108439F49103108600846E7
:10203000006840F480300860FFF7B9FF05469A4811
:102040001030006820F002009749103108600846FF
:10205000006820F0F8000860284670BD30B50246E0
:1020600000250924FFF7A3FF044602B909E0012A6D
:1020700001D1150205E0022A01D1150201E04FF459
:102080004075092C20D188481030006820F4407039
:1020900085491031086008460068284308600846F2
:1020A000006840F0040008600846006840F4803092
:1020B0000860FFF77CFF04467B481030006820F082
:1020C0000400794910310860204630BD30B5024621
:1020D00000250924FFF76BFF044602B909E0012A35
:1020E00001D1150205E0022A01D1150201E04FF4E9
:1020F0004075092C20D16C481030006820F44070E5
:10210000694910310860084600682843086008469D
:10211000006840F0040008600846006840F4803021
:102120000860FFF744FF04465F481030006820F065
:1021300004005D4910310860204630BD30B50246CC
:1021400000250924FFF733FF044602B909E0012AFC
:1021500001D1150205E0022A01D1150201E04FF478
:102160004075092C20D150481030006820F4407090
:102170004D49103108600846006828430860084649
:10218000006840F4004008600846006840F4803071
:102190000860FFF70CFF044643481030006820F445
:1021A0000040414910310860204630BD70B50646F8
:1021B00014461D460922FFF7FAFE0246092A1ED1DF
:1021C00039481030006820F44070374910310860F9
:1021D0000846006840F4407008600846006840F017
:1021E0000100086034607560FFF7E1FE02462E488A
:1021F0001030006820F001002B49103108601046B3
:1022000070BD30B502460C460925FFF7D0FE0546E5
:10221000092D1DD124481030006820F44070224957
:10222000103108600846006840F4007008600846F5
:10223000006840F0010008601460FFF7B8FE054632
:1022400019481030006820F001001749103108606B
:10225000284630BD30B502460C460925FFF7A7FEDB
:102260000546092D1DD110481030006820F440703B
:102270000D49103108600846006840F4807008601D
:102280000846006840F0010008601480FFF78FFEE8
:10229000054605481030006820F001000249103161
:1022A0000860284630BD0000003C0240230167451D
:1022B000AB89EFCD30B502460C460925FFF777FE16
:1022C0000546092D17D19B48006820F440709949B4
:1022D00008600846006808600846006840F0010091
:1022E00008601470FFF763FE05469248006820F00E
:1022F000010090490860284630BD8E48001D0068E6
:1023000000F0010028B18C488A49083908608B48E0
:10231000086070478748001D006840F0010085494B
:10232000091D0860704730B502460C460925FFF7C5
:102330003EFE0546092D10D13CB17E48801D008827
:1023400090437C49891D088007E07A48801D0088F9
:1023500091B208437749891D088030BD30B50246E7
:102360000C460925FFF723FE0546092D10D13CB187
:1023700070480A30008890436E490A31088007E0AF
:102380006C480A30008891B208436A490A310880D3
:1023900030BDFF21674AD21D127802F07F0140EA6A
:1023A0000102644BDB1D1A70704730B502460C46C3
:1023B0000925FFF7FCFD0546092D10D144B15D4804
:1023C000801D008891B208435A49891D088006E0A3
:1023D0005848801D008890435649891D088030BDAB
:1023E00030B502460C460925FFF7E1FD0546092DEB
:1023F00010D144B14F480A30008891B208434D498A
:102400000A31088006E04B480A3000889043494969
:102410000A31088030BD10B502460924FFF7C7FD18
:102420000446092C02D14348401D027010BDF0B58E
:1024300004460D46FF260927FFF7B9FD0746092F79
:102440000BD13C48001D007800F00F0645EA06005D
:10245000104320433749091D0870F0BD3549091D57
:10246000097821F01001334A121D117011460978C4
:102470000143117070472F49091D097821F00C01A3
:102480002C4A121D117011460978014311707047D2
:1024900000B509222748001D007840F002002549B8
:1024A000091D0870FFF783FD0246104600BD214854
:1024B000001D0068C0F3471070471E48801D00884B
:1024C00070471C480A30008870471A48801D0088F1
:1024D000704718480A300088704700201549491D88
:1024E0000978AA2901D0012000E000207047114896
:1024F000001D007800F00C00704729B10D4A1268E9
:1025000002430C4B1A6004E00A4A12688243094BEA
:102510001A60704701460020064A121F12680A40DE
:102520000AB1012000E0002070470249091F08603D
:1025300070470000103C02403B2A19087F6E5D4C3A
:1025400010B504469848844208D10121084600F09D
:1025500084FB0021012000F080FB76E09348844258
:1025600008D10121022000F078FB0021022000F0B8
:1025700074FB6AE08E48844208D10121042000F0F7
:102580006CFB0021042000F068FB5EE08948844277
:1025900008D10121082000F060FB0021082000F094
:1025A0005CFB52E08448844208D10121102000F0F5
:1025B00054FB0021102000F050FB46E07F4884428D
:1025C00008D10121202000F048FB0021202000F04C
:1025D00044FB3AE07A48844208D10121402000F0CF
:1025E0003CFB0021402000F038FB2EE0754884427F
:1025F00008D10121802000F030FB0021802000F074
:102600002CFB22E07048844208D10121801500F0A3
:1026100024FB0021A01500F020FB16E06B4884424B
:1026200008D10121401500F018FB0021601500F0D1
:1026300014FB0AE06648844207D10121001500F02E
:102640000CFB0021201500F008FB10BDF0B50A4678
:1026500000210023002400BF3DE0012505FA01F31D
:10266000156805EA03049C4234D105684F0003262F
:10267000BE40B543056015794E00B5400668354348
:1026800005601579012D02D01579022D16D18568C6
:102690004F000326BE40B543856055794E00B540D6
:1026A000866835438560456801268E40B5434560A0
:1026B000456896798E40B6B235434560C5684F008F
:1026C0000326BE40B543C560D5794E00B540C66807
:1026D0003543C560491C1029BFD3F0BD4FF6FF71CB
:1026E00001600021017141718171C171704708B5AC
:1026F0004FF480320092009A0A430092009AC2611D
:10270000C161009AC261C2690092C269009208BDAB
:102710000246002013690B400BB1012000E00020AD
:1027200070470146086980B270470246002053692D
:102730000B400BB1012000E00020704701464869C2
:1027400080B2704701837047418370470AB10183AB
:1027500000E0418370474161704742694A404261ED
:102760007047F0B5002300244D07ED0E02FA05F383
:10277000CE1000F1200555F826504E07F70E0F2613
:10278000BE40B543CF1000F1200646F82750CE10CA
:1027900000F1200555F8265045EA0304CE1000F15B
:1027A000200545F82640F0BD00000240000402402C
:1027B00000080240000C02400010024000140240D9
:1027C00000180240001C0240002002400024024089
:1027D00000280240F948006840F00100F74908600D
:1027E0000020F64908310860F4480068F4490840C0
:1027F000F2490860F348091D0860F348EF49843145
:102800000860F0481038091D0860EC48006820F4A2
:102810008020EA4908600020E8490C310860E74957
:102820008C31086070470021E44A921C11701146F7
:102830000870704710B501460022002300204A119D
:10284000012A02D1DD4C236808E0022A03D1DB4CC7
:102850007034236802E0D94C7434236801F01F02FD
:10286000012494401C400CB1012000E0002010BD68
:1028700038B5002000900024002500BF3120FFF76C
:10288000D9FF05460098401C00900098B0F5A04F75
:1028900001D0002DF2D03120FFF7CCFF08B1012488
:1028A00000E00024204638BD01460020C34A1068DD
:1028B00020F0F80040EAC10010607047C34908608A
:1028C00070470021BD4A703211701170012802D08A
:1028D00004280AD104E00121B84A7032117005E0E1
:1028E0000521B64A7032117000E000BF00BF70478A
:1028F000B7490860704770B5049C41EA821501260B
:10290000C6EB530645EA0645054345EA0465AB4E6A
:10291000361D356070BDAD4908667047820142EAD8
:102920000172A64B84331A607047A84988667047C5
:1029300010B5830143EA016343EA02739F4C883474
:10294000236010BDA14908677047A049C86470475B
:1029500002460020994B0833186820F0EC6042EAE8
:1029600001031843954B0833186070470246002056
:10297000924B0833186820F0784042EA010318436C
:102980008E4B083318607047014600208B4A08328E
:10299000106820F003000843106070478748083033
:1029A000006800F00C00704701460020834A08329E
:1029B000106820F0F00008431060704701460020C6
:1029C0007E4A0832106820F4E050084310607047D7
:1029D00001460020794A0832106820F4604040EA3D
:1029E000C10010607047F0B50021002200240225CC
:1029F00000260223714F08373F6807F00C0121B110
:102A0000042905D0082937D105E0724F076036E068
:102A1000704F076033E0694F3F1D3F68C7F3805632
:102A2000664F3F1D3F6807F03F036EB1694FB7FB2C
:102A3000F3F7DFF888C10CF1040CDCF800C0CCF32C
:102A4000881C07FB0CF40CE0624FB7FBF3F7DFF8D0
:102A50006CC10CF1040CDCF800C0CCF3881C07FB43
:102A60000CF4564F3F1D3F68C7F301477F1C7D00A4
:102A7000B4FBF5F7076002E0564F076000BF00BFE8
:102A80004E4F08373F6807F0F0010909524F7A5C52
:102A90000768D7404760494F08373F6807F4E0515F
:102AA000890A4D4F7A5C4768D7408760434F0837A3
:102AB0003F6807F46041490B474F7A5C4768D7404D
:102AC000C760F0BD002100F44072B2F5407F0AD12A
:102AD0003A4A0832116821F4F811404A0240114381
:102AE000364A08321160354A70321268C0F30B035F
:102AF0001A43324B70331A607047354944390860C5
:102B0000704733494039086070473549086070475D
:102B100001460020294A8C32106820F01F004A1E0E
:102B20001043264A8C321060704701460020234A29
:102B30008C32106820F4F8504A1E40EA02201F4AE6
:102B40008C3210607047014600201C4A8C3210689D
:102B500020F4401008431060704701460020174AD7
:102B60008C32106820F44000084310607047014622
:102B70000020124A8C32106820F440300843106064
:102B8000704718490860704739B10C4A30321268F2
:102B900002430A4B30331A6006E0084A30321268AA
:102BA0008243064B30331A607047E9B1034A34322E
:102BB00012680243014B34331A601AE000380240B5
:102BC000FFFFF6EA103000240030002000004742EA
:102BD000800E47420024F4004E020020FFFCFF0F4D
:102BE0005C014742E01147428F4A126882438E4B94
:102BF0001A60704739B18C4A121D126802438A4B21
:102C00001B1D1A6006E0884A121D12688243864B1B
:102C10001B1D1A60704739B1834A0C321268024397
:102C2000814B0C331A6006E07F4A0C3212688243F3
:102C30007D4B0C331A60704739B17B4A10321268F1
:102C40000243794B10331A6006E0774A103212685B
:102C50008243754B10331A60704739B1724A243A77
:102C600012680243704B243B1A6006E06E4A243A15
:102C7000126882436C4B243B1A60704739B16A4A30
:102C8000203A12680243684B203B1A6006E0664A0D
:102C9000203A12688243644B203B1A60704739B176
:102CA000614A1C3A126802435F4B1C3B1A6006E003
:102CB0005D4A1C3A126882435B4B1C3B1A607047AA
:102CC00039B1594A143A12680243574B143B1A60FF
:102CD00006E0554A143A12688243534B143B1A607B
:102CE000704739B1504A103A126802434E4B103BBC
:102CF0001A6006E04C4A103A126882434A4B103B75
:102D00001A60704739B1484A1C3212680243464B78
:102D10001C331A6006E0444A1C3212688243424B5C
:102D20001C331A60704739B13F4A2032126802439F
:102D30003D4B20331A6006E03B4A20321268824342
:102D4000394B20331A60704739B1374A2432126840
:102D50000243354B24331A6006E0334A24321268AA
:102D60008243314B24331A60704739B12E4A2C32DA
:102D7000126802432C4B2C331A6006E02A4A2C328C
:102D800012688243284B2C331A60704739B1264AA7
:102D9000303212680243244B30331A6006E0224A74
:102DA000303212688243204B30331A60704701285A
:102DB00008D11D493C31096841F008011A4A3C32EA
:102DC000116007E018493C31096821F00801164AF2
:102DD0003C321160704739B1134A273A12780243E6
:102DE000114B273B1A7006E00F4A273A12788243AC
:102DF0000D4B273B1A7070470B484030006840F07D
:102E00008070094940310860704701460020064A39
:102E1000283A12680A400AB1012000E000207047F9
:102E200001492639087070473438024010B504460D
:102E3000FE48844208D101210846FFF752FF0021D5
:102E40000120FFF74EFF9DE0B4F1804F08D1012132
:102E50000846FFF735FF00210120FFF731FF91E021
:102E6000F348844208D101210220FFF729FF002105
:102E70000220FFF725FF85E0EE48844208D10121BA
:102E80000420FFF71DFF00210420FFF719FF79E060
:102E9000E948844208D101210820FFF711FF0021F1
:102EA0000820FFF70DFF6DE0E448844208D10121BE
:102EB0001020FFF705FF00211020FFF701FF61E060
:102EC000DF48844208D101212020FFF7F9FE0021CC
:102ED0002020FFF7F5FE55E0DA48844208D10121B1
:102EE0000220FFF7FEFE00210220FFF7FAFE49E074
:102EF000D548844209D101210804FFF7F2FE0021E0
:102F00004FF48030FFF7EDFE3CE0D048844209D119
:102F100001214804FFF7E5FE00214FF40030FFF7E0
:102F2000E0FE2FE0CA48844209D101218804FFF75E
:102F3000D8FE00214FF48020FFF7D3FE22E0C548E1
:102F4000844208D101214020FFF7BAFE0021402031
:102F5000FFF7B6FE16E0C048844208D10121802068
:102F6000FFF7AEFE00218020FFF7AAFE0AE0BB4873
:102F7000844207D101218015FFF7A2FE0021A01590
:102F8000FFF79EFE10BD00220288A84B98420ED08B
:102F9000AC4B98420BD0B0F1804F08D0A44B984274
:102FA00005D0A44B984202D0A34B984204D14FF6CF
:102FB0008F731A404B881A43A04B984207D0A04BFE
:102FC000984204D04FF6FF431A400B891A430280FF
:102FD0004B68C3620B880385944B984202D0994B8F
:102FE000984201D18B7A03860123838270474FF088
:102FF000FF31416000210180018141808172704771
:103000000185828270470A46002101884FF68F733E
:10301000194011430180704741627047C162704797
:103020000146486A70470146088D704721B1028801
:1030300042F00202028004E002884FF6FD731A405B
:103040000280704721B1028842F00402028004E04D
:1030500002884FF6FB731A400280704721B1028844
:1030600042F08002028004E002884FF67F731A402B
:103070000280704702884FF6F7731A400280028878
:103080000A430280704702884FF6FF431A400280CD
:1030900002880A430280704721B1028842F001028F
:1030A000028004E002884FF6FE731A4002807047E7
:1030B00070B5002400220023058C4FF6FE763540C3
:1030C0000584028C8388048B4FF68F752C40B51EC7
:1030D0002C400D882C43751E2A408D892A434D882B
:1030E0002A43524DA84202D0564DA84213D14FF662
:1030F000F7752A40CD892A434FF6FB752A408D8803
:103100002A434FF6FF652B404FF6FF552B400D8AA3
:103110002B434D8A2B43838004838D68456302844F
:1031200070BD70B5002400220023058C4FF6EF76A9
:1031300035400584028C8388048B48F6FF752C404B
:103140004FF6FF452C400D884FF6FF7606EA052521
:103150002C434FF6DF752A408D8906EA05152A4370
:103160004D8806EA05152A43304DA84202D0354D58
:10317000A8421DD14FF67F752A40CD894FF6FF76C4
:1031800006EA05152A434FF6BF752A408D8806EAE0
:1031900005152A434FF6FF352B404FF2FF752B40A4
:1031A0000D8A06EA85052B434D8A06EA85052B43E1
:1031B000838004838D688563028470BD70B50024AC
:1031C00000220023058C4FF6FF6635400584028CF3
:1031D0008388848B4FF68F752C404FF6FC752C40FE
:1031E0000D882C434FF6FF552A408D894FF6FF7608
:1031F00006EA05252A434D8806EA05252A430B4D94
:10320000A84202D00F4DA84238D14FF2FF752A4094
:10321000CD894FF6FF7606EA05252A434FF6FF359E
:103220002A408D8806EA05252A4319E0000001405E
:103230000004004000080040000C00400010004066
:1032400000140040000401400040014000440140DF
:103250000048014000180040001C004000200040D1
:103260004EF6FF752B404DF6FF752B400D8A06EA92
:1032700005152B434D8A06EA05152B43838084836D
:103280008D68C563028470BD70B5002200230024E0
:10329000058C4EF6FF7635400584038C8488828B3E
:1032A00048F6FF752A404FF6FF452A400D884FF635
:1032B000FF7606EA05252A434DF6FF752B408D89DA
:1032C00006EA05352B434D8806EA05352B43FE4DAE
:1032D000A84202D0FD4DA84208D14BF6FF752C4004
:1032E0000D8A4FF6FF7606EA85152C43848082838B
:1032F0008D680564038470BD002101804180818058
:1033000081608181C18101824182704770B503462D
:10331000002000241846183001258D40ACB21D8CC9
:10332000A5431D8409B108290AD100EB6100056895
:103330004FF68F76354005600568154305600FE050
:103340000D1FC5F34E052844056848F6FF76354045
:10335000056005684FF6FF7606EA022635430560EC
:1033600070BD4163704781637047C16370470164FA
:1033700070470A460021018B4FF68F7319401143A5
:10338000018370470A460021018B48F6FF731940FC
:103390004FF6FF7303EA02231943018370470A467D
:1033A0000021818B4FF68F73194011438183704741
:1033B0000A460021818B48F6FF7319404FF6FF73D0
:1033C00003EA02231943818370470A460021018BD7
:1033D0004FF6F77319401143018370470A460021E5
:1033E000018B4FF2FF7319404FF6FF7303EA02237C
:1033F0001943018370470A460021818B4FF6F7730A
:1034000019401143818370470A460021818B4FF296
:10341000FF7319404FF6FF7303EA022319438183B8
:1034200070470A460021018B4FF6FB731940114388
:10343000018370470A460021018B4FF6FF33194084
:103440004FF6FF7303EA02231943018370470A46CC
:103450000021818B4FF6FB73194011438183704724
:103460000A460021818B4FF6FF3319404FF6FF7358
:1034700003EA02231943818370470A460021018B26
:103480004FF67F7319401143018370470A460021AC
:10349000018BC1F30E014FF6FF7303EA02231943B8
:1034A000018370470A460021818B4FF67F731940D4
:1034B0001143818370470A460021818BC1F30E01BD
:1034C0004FF6FF7303EA02231943818370470A46CC
:1034D0000021018C4FF6FD731940114301847047A0
:1034E0000A460021018C4FF6F773194011430184FD
:1034F00070470A460021018C4FF6DF7319404FF6E2
:10350000FF7303EA02131943018470470A4600213E
:10351000018C4FF67F7319404FF6FF7303EA0213D5
:103520001943018470470A460021018C4FF6FF536E
:1035300019404FF6FF7303EA0223194301847047D1
:103540000A460021018C4FF2FF7319404FF6FF73BA
:1035500003EA02231943018470470A460021018CC3
:103560004DF6FF7319404FF6FF7303EA0233194318
:103570000184704730B5002301248C40A3B2048C31
:103580009C430484048C02FA01F5ADB22C430484FC
:1035900030BD30B5002304248C40A3B2048C9C437E
:1035A0000484048C02FA01F5ADB22C43048430BDCE
:1035B000828B4FF2FF331A408283828B4FF6FF7368
:1035C00003EA01231A4382837047F0B50C4615467F
:1035D000002100220026078C4EF6FF7C07EA0C072C
:1035E0000784818B028C4FF6FF7707EA043640F69A
:1035F000FF4739404FF6FF7707EA052739434FF673
:10360000FF7707EA0337394345F6FF773A4046F438
:1036100080573A4381830284F0BD828B4FF6F37367
:103620001A408283828B0A4382837047F0B50C462E
:103630001546002100220026078C4FF6FF6C07EA92
:103640000C070784818B028C4FF6FF7707EA04266C
:103650004FF60C7739404FF6FF7707EA03172F43F1
:1036600039434FF2FF573A4046F480773A4381831B
:103670000284F0BD028B4FF2FF331A400283028BAB
:103680004FF6FF7303EA01231A4302837047F0B534
:103690000C461546002100220026078C4FF6EF7CD1
:1036A00007EA0C070784018B028C4FF6FF7707EAC5
:1036B000041640F6FF4739404FF6FF7707EA033715
:1036C00039434FF6FF7703E000000140000401405A
:1036D00007EA052739434FF65F773A4046F010076F
:1036E0003A4301830284F0BD028B4FF6F3731A4014
:1036F0000283028B0A4302837047F0B50C461546DD
:1037000000210022068C4FF6FE773E400684018B96
:10371000028C4FF60C7631407E1C06EA03162E43CF
:1037200031434FF6F576324044F0010632430183CF
:103730000284F0BD70B505460C46208850B9238937
:10374000A28861882846FFF7D8FFE1882846FFF75E
:10375000CBFF25E0208804280AD12389A28861882C
:103760002846FFF794FFE1882846FFF783FF17E01C
:10377000208808280AD12389A28861882846FFF773
:1037800055FFE1882846FFF748FF09E02389A28812
:1037900061882846FFF719FFE1882846FFF708FFF0
:1037A00070BD002101804180012181800021C18004
:1037B000018170472DE9F04105460C46002601279E
:1037C000608808B9022600E00026A088012801D1FF
:1037D000022700E001272088A0B92389A2886188F8
:1037E0002846FFF78AFFE1882846FFF77DFF2389F7
:1037F0003A4631462846FFF74AFFE1882846FFF758
:1038000039FF13E02389A28861882846FFF73FFF2C
:10381000E1882846FFF72EFF23893A46314628469D
:10382000FFF76BFFE1882846FFF75EFFBDE8F081F8
:103830000146486B70470146886B70470146C86B6C
:1038400070470146086C70470A884B881A438B887A
:103850001A43CB881A430B891A434B891A438B8925
:103860001A43A0F8442070470021018041808180E4
:10387000C180018141818181704731B1B0F844201C
:1038800042F40042A0F8442005E0B0F84420C2F31E
:103890000E02A0F84420704721B1828842F0040251
:1038A000828004E082884FF6FB731A408280704762
:1038B00021B1828842F00102828004E082884FF6C2
:1038C000FE731A40828070471AB183890B4383814B
:1038D00002E083898B43838170478182704702466F
:1038E0000020138A0B400BB1012000E0002070473C
:1038F000CA430282704730B50246002000230024EC
:10390000158A05EA0103958905EA010413B10CB192
:10391000012000E0002030BDCA430282704741EA26
:103920000203A0F8483070471AB183890B438381A2
:1039300002E083898B438381704721B1828842F002
:103940000802828004E082884FF6F7731A40828072
:10395000704701894FF6F8721140018170470A469D
:10396000002101894FF68F7319401143018170477F
:1039700030B504460D4629462046FFF7F0FF208962
:1039800040F00700208130BD2DE9F04104460D468E
:1039900016461F46602D06D13B4601223146204681
:1039A000FFF775FE05E03B46012231462046FFF752
:1039B000A4FE29462046FFF7D2FF208940F00700E9
:1039C0002081BDE8F08130B50C4600210189C9B2E3
:1039D0004FF6FF7505EA0325154325432943018169
:1039E00030BD2DE9F04105460E46174698460024A5
:1039F00043463A4631462846FFF7E5FF2C894FF605
:103A0000F870044044F007044FF68F70044044F00F
:103A100070042C81BDE8F081F0B504460D461646D1
:103A20001F463B46324629462046FFF7CCFF2089F9
:103A300040F480402081F0BD82884FF68F731A4099
:103A4000828082880A438280704702894FF6F87329
:103A50001A40028102890A430281704702894FF6A7
:103A60007F731A40028102890A4302817047F0B5D0
:103A70000C4615461E460021002200230189028BB8
:103A8000038C4FF6F877394021434FF6FC473A4014
:103A900040F201173A434FF6DD773B404FF6FF7790
:103AA00007EA06172F433B43018102830384F0BDDD
:103AB00021B1828842F08002828004E082884FF641
:103AC0007F731A4082807047A0F850107047000042
:103AD00010B50446FA48844208D101211020FFF7AE
:103AE00000F900211020FFF7FCF857E0F548844268
:103AF00009D101214804FFF7E3F800214FF4003019
:103B0000FFF7DEF84AE0F048844209D10121880439
:103B1000FFF7D6F800214FF48020FFF7D1F83DE001
:103B2000EA48844209D10121C804FFF7C9F80021FD
:103B30004FF40020FFF7C4F830E0E548844209D193
:103B400001210805FFF7BCF800214FF48010FFF7B2
:103B5000B7F823E0DF48844208D101212020FFF795
:103B6000C0F800212020FFF7BCF817E0DA488442B3
:103B700009D101218807FFF7A3F800214FF0804009
:103B8000FFF79EF80AE0D548844207D1012140059D
:103B9000FFF796F800216005FFF792F810BD2DE9B8
:103BA000FF4705460E460024A14600BFA046B08947
:103BB00000B100BF2C8A24F44054F08804432C82C6
:103BC000AC8941F20C608443B08831890843718923
:103BD00008430443AC81AC8A24F44074B0890443A4
:103BE000AC826846FEF7FFFEB548854202D0B94870
:103BF000854202D1DDF80C9001E0DDF80890A8893B
:103C000000F4004040B109EBC90000EB0910316835
:103C10004900B0FBF1F707E009EBC90000EB091020
:103C200031688900B0FBF1F76420B7FBF0F00401C4
:103C30002009642101FB1078A88900F4004040B1FC
:103C4000322000EBC800B0FBF1F000F007000443A5
:103C500008E0322000EB08106421B0FBF1F000F026
:103C60000F0004432C81BDE8FF874FF4165101601B
:103C700000218180C18001810C214181002181814D
:103C8000704710B502460020108A20F470600B883F
:103C90004C8823438C882343CC88234318431082C9
:103CA00010BD0021018041808180C180704721B119
:103CB000828942F40052828104E082894DF6FF73CA
:103CC0001A4082817047028B02F47F420283028B8A
:103CD0000A430283704721B1828942F40042828103
:103CE00003E08289C2F30E028281704721B1828A89
:103CF00042F40062828204E0828A4FF2FF731A402B
:103D000082827047C1F3080282807047014688882A
:103D1000C0F308007047028A4FF6F0731A4002821F
:103D2000028A0A430282704721B1828942F002026C
:103D3000828104E082894FF6FD731A4082817047C8
:103D400082894FF2FF731A40828182890A438281FD
:103D50007047028A4FF6DF731A400282028A0A43D2
:103D60000282704721B1028A42F48042028204E05A
:103D7000028A4BF6FF731A4002827047818941F034
:103D800001018181704721B1828A42F0080282825A
:103D900004E0828A4FF6F7731A4082827047028BE2
:103DA000D2B20283028B42EA01220283704721B120
:103DB000828A42F02002828204E0828A4FF6DF7318
:103DC0001A408282704721B1828A42F010028282B8
:103DD00004E0828A4FF6EF731A4082827047828A2B
:103DE0004FF6FB731A408282828A0A4382827047AE
:103DF00021B1828A42F00202828204E0828A4FF676
:103E0000FD731A40828270471AB1838A0B43838202
:103E100002E0838A8B4383827047F0B50346002417
:103E200000260025002040F66A17B94200D100BFE5
:103E30001846C1F3421401F01F06012707FA06F5E0
:103E4000012C01D10C3004E0022C01D1103000E033
:103E500014301AB107682F43076002E00768AF43C8
:103E60000760F0BD02460020B1F5007F00D100BF21
:103E700013880B400BB1012000E00020704701F4D3
:103E80000072B2F5007F00D100BFCA4302807047C4
:103E900070B50246002400230025002040F66A1673
:103EA000B14200D100BFC1F3421501F01F0301264A
:103EB00006FA03F3012D13D19689334017E0000071
:103EC000001001400044004000480040004C004009
:103ED000005000400014014000780040007C004089
:103EE000022D02D1168A334001E0968A33400C122B
:103EF000012606FA04F41688344013B10CB10120EF
:103F000000E0002070BD10B50022002340F66A14C6
:103F1000A14200D100BF0A1201249440A3B2DC43A5
:103F2000048010BD10B50121C802FEF7C9FE0021B2
:103F30004FF40060FEF7C4FE10BD00211B4A12685A
:103F400022F4C0710143194A1160704708B500217D
:103F500000911649096821F07F01009100F07F016E
:103F6000009A11430091114A0099116008BD012087
:103F70000F490860704700F07F010C4A121F116062
:103F8000704740F08001094A121F116070470020FD
:103F90000649091D096809B1012000E000207047A9
:103FA00000200249091D086070470000042C0040F1
:103FB000A4800542016821F0010101600021016037
:103FC00041608160C160016121214161DB4988421A
:103FD00004D13D21D94A103A91608CE0D74918317B
:103FE000884205D14FF47461D44A103A916082E05E
:103FF000D2493031884205D14FF47411CF4A103A7A
:10400000916078E0CD494831884205D14FF0746124
:10401000CA4A103A91606EE0C8496031884204D1C2
:10402000C749C64A103AD16065E0C4497831884230
:1040300004D1C449C14A103AD1605CE0BF49903113
:10404000884204D1C049BD4A103AD16053E0BB490F
:10405000A831884205D14FF03D51B84A103AD1609D
:1040600049E0BA49884204D13D21B84A083A116072
:1040700041E0B6491831884205D14FF47461B34A22
:10408000083A116037E0B1493031884205D14FF428
:104090007411AE4A083A11602DE0AC4948318842AB
:1040A00005D14FF07461A94A083A116023E0A7498D
:1040B0006031884204D1A249A44A121F11601AE05B
:1040C000A2497831884204D19E49A04A121F11604A
:1040D00011E09E499031884204D19B499B4A121FAE
:1040E000116008E09949A831884204D14FF03D5150
:1040F000964A121F1160704710B500220268944B57
:104100001A40CC680B6823434C6923438C692343D2
:10411000CC6923430C6A23434C6A23438C6A2343B0
:104120004C6B23438C6B23431A430260426922F099
:104130000702D1E90B3423431A4342610B69436000
:104140004B6883608B68C36010BD002101604160D3
:104150008160C160016141618161C161016241624F
:104160008162C162016341638163704721B102686A
:1041700042F00102026003E0026822F001020260E4
:10418000704721B1026842F40042026003E0026815
:1041900022F400420260704721B1026842F020021E
:1041A000026003E0026822F0200202607047416072
:1041B00070470146486880B2704722B1036843F4F3
:1041C0000023036003E0036823F40023036001611C
:1041D000704721B1026842F48022026003E0026865
:1041E00022F48022026070470AB1016100E0C160E0
:1041F0007047014600200A6802F400220AB101203B
:1042000000E000207047014600200A6802F0010229
:104210000AB1012000E000207047014600204A69F1
:1042200002F03800704730B503460A4600200024EB
:10423000464DAB4202D24149103901E043491039A1
:1042400002F000550DB14C6800E00C68414D2C4067
:1042500004EA02050DB1012000E0002030BD024655
:104260003A4B9A4202D23548103801E037481038AC
:1042700001F000531BB1374B0B40C36002E0354BDC
:104280000B408360704710B501F080034BB122B141
:10429000436943F08003436103E0436923F08003F3
:1042A000436180290BD02AB1036801F01E04234327
:1042B000036004E0036801F01E04A343036010BD23
:1042C00070B50246002000240025204EB24202D2E2
:1042D0001A4B103B01E01D4B103B1F4E0E4036B1F8
:1042E0001E2606EAD124166806EA040502E056698D
:1042F00006F0800501F000560EB15C6800E01C6815
:10430000144E344004EA010616B10DB1012000E05C
:10431000002070BD02460D4B9A4202D20748103869
:1043200001E00A48103801F000531BB1094B0B4063
:10433000C36002E0074B0B4083607047106002408F
:104340003D000020400F002000003D20106402408E
:104350003F801CF07D0F7D0F3C0F3C0F00487047E5
:10436000504C0020032A40F2308010F0030C00F083
:10437000158011F8013BBCF1020F624498BF11F89F
:1043800001CB00F8013B38BF11F8013BA2F1040258
:1043900098BF00F801CB38BF00F8013B11F00303D0
:1043A00000F04A80083AC0F0088051F8043B083A0F
:1043B00051F804CBA0E80810F5E7121D5CBF51F8D6
:1043C000043B40F8043BAFF30080D20724BF11F850
:1043D000013B11F801CB48BF11F8012B24BF00F8B5
:1043E000013B00F801CB48BF00F8012B70474FF0AC
:1043F00000020429C0F0128010F0030C00F050807D
:10440000CCF1040CBCF1020F18BF00F8012BA8BFBF
:1044100020F8022BA1EB0C0100F042B85FEAC17C4E
:1044200024BF00F8012B00F8012B48BF00F8012B36
:10443000704770477047704710B5203AC0F00B8046
:10444000B1E81850203AA0E81850B1E81850A0E898
:104450001850BFF4F5AF5FEA027C24BFB1E81850F2
:10446000A0E8185044BF18C918C0BDE810405FEA62
:10447000827C24BF51F8043B40F8043B08BF7047DE
:10448000D20728BF31F8023B48BF11F8012B28BFE3
:1044900020F8023B48BF00F8012B70474FF00002A4
:1044A00000B5134694469646203922BFA0E80C502A
:1044B000A0E80C50B1F12001BFF4F7AF090728BF05
:1044C000A0E80C5048BF0CC05DF804EB890028BF81
:1044D00040F8042B08BF704748BF20F8022B11F0AA
:1044E000804F18BF00F8012B70477546FFF736FF65
:1044F000AE4605006946534620F00700854618B0D1
:1045000020B5FCF72FF9BDE820404FF000064FF032
:1045100000074FF000084FF0000B21F00701AC46F8
:10452000ACE8C009ACE8C009ACE8C009ACE8C00917
:104530008D46704710B50446AFF300802046BDE8B5
:104540001040FBF78ABE000001491820ABBEFEE711
:10455000260002007047000001000000F912000868
:1045600010B5002A06DA22F00042D21D22F007031D
:10457000102203E0D21C22F003030C2213B19C187A
:104580008C4201D9012010BD024401448360C0E97E
:104590000021C91AD018884202D810600246F9E7F3
:1045A0000020106010BD000008480068C0010BD555
:1045B00007480068C00707D0054880380068002811
:1045C00002DA04490120087070470000FCED00E0A9
:1045D000800E00E06C0200204FF06042D36F002B91
:1045E000FCD0436BD367D36F002BFCD0C07840EA7C
:1045F0000120A2F87C0070474FF06041CA6F002A8A
:10460000FCD081F87C00704710B500F025FBBDE8B8
:10461000104000F011BB10B5002100F01DFBBDE8FB
:10462000104000F009BB0000074801684FF0E0208F
:10463000416100218161072101610448016841F065
:104640007F410160401770475453000820ED00E09F
:10465000704750E8001F31B10B6840E80032002A73
:10466000F7D108467047BFF32F8FFAE770B50D46B4
:10467000002812D04FF6FF71084C884204D22268FD
:104680000146104600F016FB20684570044800F013
:104690009FF8BDE8704000F0EFBB70BD60020020E5
:1046A000204C002070B51A4DE86800282ED0A88A4A
:1046B000401EA882002623E0A06838B161684160EE
:1046C000606810B1A16881606660A66010482146EC
:1046D000183800F013FBA08AA8826078042804D15F
:1046E0000C49E08A09880844A0820120607084F89F
:1046F0002500E068E860E06808B10561E6602661D1
:10470000A88A002802D1EC68002CD5D170BD000029
:10471000384C00206802002070B504000FD00D4D09
:10472000A17801262868827891420CD900F002FB1A
:10473000286846702046BDE8704000F09DBB0648E2
:1047400000F046F8F7E766702146BDE87040024881
:1047500000F0D4BA60020020204C00200321FFF7B3
:1047600085BF000010B50446008B084320836278A3
:10477000618B062A16D0052A17D1084215D001EA06
:104780000002628388432083204600F0F7FA01206C
:104790006070022084F825002146BDE810400348DF
:1047A00000F0ACBA31EA0002ECD010BD204C002081
:1047B000814202D342688A4201D80120704750E802
:1047C000002F0A6040E80012002AF8D1002070474C
:1047D0000146406842684A600B780022022B05D0EF
:1047E000012B03D0032B01D04260704743680BB10B
:1047F00099604260826070470649074B48681B68B1
:1048000082789B789A4202D142684A6070470020C1
:1048100070470000204C00206002002070B5044664
:1048200000201546207001226270A17084F82410C7
:104830006060A060E06020612062A082E08220834E
:10484000608384F8250084F82600208D18B9054877
:10485000FFF7FFFE206329462046BDE8704000F0C8
:1048600003B80000F804002010B5028D920803D1AF
:104870000F4A1288C2F38D02036B03EB82025307C7
:1048800000D5121F4FF0807342E9021300231C462B
:10489000B2F1400242F823405B1C0E2BFAD3C369ED
:1048A0001362C2624163006B0249016010BD0000E7
:1048B0004C530008A52E5AE20122027000224270D9
:1048C000426002814281103982818908C18170472A
:1048D0002DE9F041044640680F464FF0000804F10E
:1048E0000C0620B1617802291DD0A089E8B3A08907
:1048F000E18988424ED2208904EB8000C0F8107014
:10490000D6E85F0F401C81B2C6E8501F0028F7D1DF
:104910002089401C80B22081E189884201D1A4F81D
:104920000880BDE8F081406800B101206070204639
:10493000FFF74EFF80F825802289054604EB8202AE
:10494000C0694146C2F81000D6E85F0F401C82B231
:10495000C6E8502F0028F7D12089401C80B2208162
:10496000E28990420BD1218109E0FFE72046FFF761
:104970002FFF0546C0690421076085F82510012036
:104980006870284600F0FAF92946BDE8F04104486D
:1049900000F0B4B9BDE8F0410320FBF77EBD000094
:1049A000204C00202DE9F041044680892B4E904692
:1049B0000F460025B8B3608904EB800000690860E9
:1049C0006089401C80B26081E189884200D16581A4
:1049D0006068E0B12046FFF7FBFE80F82550218992
:1049E000074604EB8101C06908612089401C80B240
:1049F0002081E189884200D12581384600F0BEF946
:104A00003846FFF789FE306880F8255008E00C34FE
:104A1000D4E85F0F401E81B2C4E8501F0028F7D1D0
:104A20000020BDE8F081FFE7B8F1000F07D00B4987
:104A30006068096828B1204600F060F906E00120AE
:104A4000EFE7616030684560306884600821404667
:104A5000FFF70CFE3068C761F1E70000600200203C
:104A6000032101700021418041608160C160704775
:104A70002DE9F0470446408820B1344DA1682A68EA
:104A8000914202D0FF20BDE8F087401E0004000CD8
:104A9000608059D12968086AA04209D1E06808629B
:104AA00008E0C268A24202D1E268C26002E0104699
:104AB0000028F6D191F824000A6A06E053681BB179
:104AC0009B78834200D91846D268002AF6D18870B4
:104AD000DFF87C8061689146012741B32046FFF7EB
:104AE00077FE0646052086F82500304600F046F998
:104AF0006780A660306AE06034622968D8F80400F4
:104B00008A788078824201D330460AE0104800F06B
:104B1000F5F831460E4800F0F1F8286847707770D4
:104B200010E0FFF7F9FD296881F825900CE0D8F82E
:104B300004108A782968824206D9054800F0DEF818
:104B4000286847700020ECE700209CE76002002006
:104B5000204C002070B5184D0E4604464188286848
:104B600039B1A168814209D16088401C6080002071
:104B700070BDA060016AE1600462F5E776B18A78F1
:104B80008078824203D28870A06800F0DDF8606807
:104B900030B12046296800F0B1F808E0012070BD6E
:104BA00028686060296800204860286884600921BE
:104BB0003046FFF75BFDF1E76002002070B51B484F
:104BC000012102685170006800F0B4F8184D6C784B
:104BD00018E000BF05EBC40148680278EAB1012A79
:104BE00020D000F0FDF8E878641C844200D1002455
:104BF0000F48801CD0E84F1F491EC9B2C0E8421FB1
:104C0000002AF7D1A8780028E4D16C700948FFF792
:104C1000DFFDBDE8704000F02FB9098989B2FFF7C8
:104C2000A1FDE0E78968FFF753FEDCE760020020A2
:104C300008060020204C00200548017811B1012110
:104C40004170704703494FF0805008607047000082
:104C50007002002004ED00E0F0B4154DAB1CEE78BE
:104C60004FEA0507D3E84F2FB24202D1BFF32F8F8F
:104C700011E0521CD4B2C3E8424F002AF2D100BF67
:104C8000D7E84F2F541CB44200D10024E4B2C7E847
:104C9000434F002BF4D1EB78934205D905EBC202C8
:104CA000C2E90101F0BC7047F0BC0220FBF7F5BB84
:104CB00008060020104A10B5D368ABB113469B8A92
:104CC00003E08CB12246A48A2344D4688B42F8D3F3
:104CD000C460D0600261C46804B12061591A818245
:104CE000908A401A908210BD0024C460D060C91A16
:104CF00002619182848210BD384C002030B5027868
:104D00000023022A03D0012A01D0032A00D1012363
:104D10008C7800E01046426812B19578A542F9D22D
:104D20004A6041601BB102B19160886030BD0020D3
:104D3000FBE7000003494A68426000228260486045
:104D400070470000204C002010B5836804462BB942
:104D5000607801280ED1084B03E09B681878002882
:104D6000FBD0204600F01EF82146BDE81040184652
:104D7000FFF7C4BF10BD0000204C002010B5016932
:104D800000290ED0C268CA60C36800223BB18B8A7A
:104D9000848A23448B82C3681961C26000E08A82DE
:104DA000026110BD816839B142684A6041680029DA
:104DB00001D0806888607047054906E04A688242F1
:104DC00002D140684860704711460029F6D170470B
:104DD000204C002002220270002242604180704775
:104DE00010B5416879B1FFF7F3FC0446FFF7C6FF41
:104DF00001206070032084F825002146BDE81040A2
:104E00000348FFF77BBF4188491C418010BD00006B
:104E1000204C002010B50C46418819B1491E418034
:104E2000002010BD34B10A4A4368116823B1FFF76E
:104E300065FF07E0012010BD416013680021596043
:104E40001168886007212046FFF710FCF2E7000098
:104E50006002002006480068D0E90B10814203D3AD
:104E600000680449884202D00120FBF716BB704756
:104E700060020020A52E5AE20749022248604270D3
:104E8000064A1278002A05D006C98A4202D0C078A4
:104E9000FFF7B2BB70470000600200206C020020E8
:104EA0002DE9F047164688468146FFF77DFB002036
:104EB00004463E4A3E4902E042F82040401C0B882E
:104EC0009842F9D33B48382201883B48FFF748FB1A
:104ED0003A48008880B240F00042394801683948B9
:104EE000FFF73EFB38480822018838480068FFF782
:104EF00037FB374FFF25374AFD703C850021384688
:104F0000FFF78CFC34480421017044603348017081
:104F1000C46004618482F86A2030FBF7E1F930480C
:104F200031490760022078702E4804704470097877
:104F3000C170FBF7B6FA2D48016841F47F010160AA
:104F40000068290601EA00202849C0431439B0FA54
:104F500080F00968C0F10800C1F30221814200DB42
:104F6000481C2249091F0B686FF08072824063F36E
:104F700017020A60FFF758FB1D49002808600DDB87
:104F800000F1E02181F8005400F01F02012191405E
:104F90004011800000F1E020C0F800113246414687
:104FA0004846BDE8F047002300F064B88C060020B6
:104FB0004853000864530008800200204C53000846
:104FC00068530008F80400206E5300080000002019
:104FD000E84B002095040008204C0020384C0020AD
:104FE00060020020080600206C53000820ED00E05D
:104FF000740200200C4810B502680121517000684D
:10500000FFF798FEFBF74EFA08480168491C01605B
:10501000FFF748FB00F00EF80548FFF7D9FBBDE8A5
:105020001040FFF729BF0000600200206802002046
:10503000204C002070B50D4C2068002815D0A088A9
:105040000B4E401EA0800AE0E888FBF725FAA888EE
:10505000A0802868206029463068FFF7A9FBA08857
:10506000002802D12568002DEED170BD7802002005
:10507000000000202DE9F0411E46174680460C46F0
:1050800011F0FF0F00D14C1C1948FFF7E2FA0500A0
:105090002BD0200A2F632885E1B242462846EE61D4
:1050A000FFF7BCFB01241348134905E000EB840221
:1050B00052F8042C22B1641C0A889442F6D90024C8
:1050C00000EB8400E6B240F8045C0C48EE70007817
:1050D00018B101212846FFF77FFA2846FFF71CFB8D
:1050E0000748006880F825602046BDE8F081000090
:1050F000800200208C060020485300086C0200202B
:10510000600200202DE9F05F544DDFF848B1DFF870
:1051100048A129684FF000084FF00509012610B199
:10512000CA7882423FD1474681F80180FBF7DBF81D
:105130002968C862FFF78EFE2868B046046A18E046
:105140006068A8B12046FFF743FB064680F825902B
:10515000FFF714FE86F8018031464148FFF7CEFD87
:10516000A4F80280A660316AE1603462E46800E07D
:10517000E468002CE4D12868C2780AEB820141F887
:10518000047C016B3748FFF713FB286807639BF823
:10519000001011B10021FFF71FFA33482968FFF70B
:1051A00007FB2F6051E03149098888420ED80AEB8D
:1051B000800757F8045C4DB12846FFF7F3FD2846F9
:1051C000FFF7DCFDCA46B1462C6A1BE0FF20BDE8B4
:1051D000F09F6068A8B12046FFF7FAFA064680F80B
:1051E00025A0FFF7CBFD86F8019031461C48FFF75C
:1051F00085FDA4F80290A660316AE1603462E4683B
:1052000000E0E468002CE4D147F8048C44461548DB
:10521000296BFFF7CDFA2C639BF8000018B1002131
:105220002846FFF7D9F929460F48FFF7C1FA0C487D
:1052300040688278094801688B789A4208D981F8D9
:10524000019001680648FFF759FD0020FFF764FA56
:105250000020BCE76C0200208C06002060020020C9
:10526000204C0020F8040020800200204853000851
:1052700070B5FFF7C1FA04000CD0074D0748296844
:10528000FFF73CFD2968012048702046BDE87040CA
:10529000FFF7F2BD70BD000060020020204C00202E
:1052A00070B51E4C002680B11D4A1288904222D84B
:1052B0001C4A02EB800050F8045CE5B1A97085F847
:1052C00024102068A84205D017E02068817020686B
:1052D00080F8241014484068807888421BD912480E
:1052E0002168FFF70BFD216801204870206880F8D5
:1052F000256000200DE0FF2070BD2846FFF724FD4B
:105300006878012807D10848FFF762FA216881F818
:105310002560FFF701FA002070BD00006002002048
:10532000485300088C060020204C002002480068EA
:10533000002800D0C0787047600200204FF0407015
:10534000E1EE100A704700000B00000000010B01A5
:10535000050000007FA219000000000010270000D7
:105360000100000074020000100100001000140091
:105370009617002016180020460000200A19002069
:105380004B000400A453000800000020800200002D
:10539000C4010008EC5400088002002030500000D6
:1053A0002002000813B8065220847A030A180A0162
:1053B00002030406070809FF01012F2808C18140E4
:1053C00001C0804104690C2908E918A91C091A3098
:1053D000091638093660092E70092F6000FF00C0D9
:1053E000C101C30302C2C60607C705C5C404CC0C6D
:1053F0000DCD0FCFCE0E0ACACB0BC90908C8D818DD
:1054000019D91BDBDA1A1EDEDF1FDD1D1CDC14D4EC
:10541000D515D71716D6D21213D311D1D010F0301C
:1054200031F133F3F23236F6F737F53534F43CFC2C
:10543000FD3DFF3F3EFEFA3A3BFB39F9F83828E8DC
:10544000E929EB2B2AEAEE2E2FEF2DEDEC2CE424AC
:1054500025E527E7E62622E2E323E12120E0A0601C
:1054600061A163A3A26266A6A767A56564A46CACEC
:10547000AD6DAF6F6EAEAA6A6BAB69A9A86878B85C
:10548000B979BB7B7ABABE7E7FBF7DBDBC7CB4746C
:1054900075B577B7B67672B2B373B17170B050901C
:1054A00091519353529296565797559594549C5CAC
:1054B0005D9D5F9F9E5E5A9A9B5B9959589888485C
:1054C00049894B8B8A4A4E8E8F4F8D4D4C8C44842C
:1054D0008545874746868242438341818042402DED
:0C54E0000102030404052206070809006D
:040000050800018965
:00000001FF
